{
  "_format": "hh-sol-artifact-1",
  "contractName": "InkPredict",
  "sourceName": "contracts/InkPredict.sol",
  "abi": [
    {
      "inputs": [
        {
          "internalType": "address",
          "name": "_usdcToken",
          "type": "address"
        }
      ],
      "stateMutability": "nonpayable",
      "type": "constructor"
    },
    {
      "anonymous": false,
      "inputs": [
        {
          "indexed": true,
          "internalType": "address",
          "name": "oldAdmin",
          "type": "address"
        },
        {
          "indexed": true,
          "internalType": "address",
          "name": "newAdmin",
          "type": "address"
        }
      ],
      "name": "AdminUpdated",
      "type": "event"
    },
    {
      "anonymous": false,
      "inputs": [
        {
          "indexed": true,
          "internalType": "uint256",
          "name": "marketId",
          "type": "uint256"
        },
        {
          "indexed": true,
          "internalType": "address",
          "name": "bettor",
          "type": "address"
        },
        {
          "indexed": false,
          "internalType": "bool",
          "name": "position",
          "type": "bool"
        },
        {
          "indexed": false,
          "internalType": "uint256",
          "name": "amount",
          "type": "uint256"
        },
        {
          "indexed": false,
          "internalType": "uint256",
          "name": "yesPool",
          "type": "uint256"
        },
        {
          "indexed": false,
          "internalType": "uint256",
          "name": "noPool",
          "type": "uint256"
        }
      ],
      "name": "BetPlaced",
      "type": "event"
    },
    {
      "anonymous": false,
      "inputs": [
        {
          "indexed": true,
          "internalType": "uint256",
          "name": "marketId",
          "type": "uint256"
        },
        {
          "indexed": false,
          "internalType": "string",
          "name": "tweetId",
          "type": "string"
        },
        {
          "indexed": false,
          "internalType": "uint256",
          "name": "targetMetric",
          "type": "uint256"
        },
        {
          "indexed": false,
          "internalType": "string",
          "name": "metricType",
          "type": "string"
        },
        {
          "indexed": false,
          "internalType": "uint256",
          "name": "deadline",
          "type": "uint256"
        }
      ],
      "name": "MarketCreated",
      "type": "event"
    },
    {
      "anonymous": false,
      "inputs": [
        {
          "indexed": true,
          "internalType": "uint256",
          "name": "marketId",
          "type": "uint256"
        },
        {
          "indexed": false,
          "internalType": "bool",
          "name": "outcome",
          "type": "bool"
        },
        {
          "indexed": false,
          "internalType": "uint256",
          "name": "finalMetric",
          "type": "uint256"
        }
      ],
      "name": "MarketResolved",
      "type": "event"
    },
    {
      "anonymous": false,
      "inputs": [
        {
          "indexed": true,
          "internalType": "address",
          "name": "oldOracle",
          "type": "address"
        },
        {
          "indexed": true,
          "internalType": "address",
          "name": "newOracle",
          "type": "address"
        }
      ],
      "name": "OracleUpdated",
      "type": "event"
    },
    {
      "anonymous": false,
      "inputs": [
        {
          "indexed": false,
          "internalType": "bool",
          "name": "paused",
          "type": "bool"
        }
      ],
      "name": "Paused",
      "type": "event"
    },
    {
      "anonymous": false,
      "inputs": [
        {
          "indexed": true,
          "internalType": "address",
          "name": "oldTreasury",
          "type": "address"
        },
        {
          "indexed": true,
          "internalType": "address",
          "name": "newTreasury",
          "type": "address"
        }
      ],
      "name": "TreasuryUpdated",
      "type": "event"
    },
    {
      "anonymous": false,
      "inputs": [
        {
          "indexed": true,
          "internalType": "uint256",
          "name": "marketId",
          "type": "uint256"
        },
        {
          "indexed": true,
          "internalType": "address",
          "name": "winner",
          "type": "address"
        },
        {
          "indexed": false,
          "internalType": "uint256",
          "name": "amount",
          "type": "uint256"
        }
      ],
      "name": "WinningsClaimed",
      "type": "event"
    },
    {
      "inputs": [],
      "name": "MAX_MARKET_DURATION",
      "outputs": [
        {
          "internalType": "uint256",
          "name": "",
          "type": "uint256"
        }
      ],
      "stateMutability": "view",
      "type": "function"
    },
    {
      "inputs": [],
      "name": "MIN_BET",
      "outputs": [
        {
          "internalType": "uint256",
          "name": "",
          "type": "uint256"
        }
      ],
      "stateMutability": "view",
      "type": "function"
    },
    {
      "inputs": [],
      "name": "PLATFORM_FEE",
      "outputs": [
        {
          "internalType": "uint256",
          "name": "",
          "type": "uint256"
        }
      ],
      "stateMutability": "view",
      "type": "function"
    },
    {
      "inputs": [],
      "name": "admin",
      "outputs": [
        {
          "internalType": "address",
          "name": "",
          "type": "address"
        }
      ],
      "stateMutability": "view",
      "type": "function"
    },
    {
      "inputs": [
        {
          "internalType": "uint256",
          "name": "marketId",
          "type": "uint256"
        },
        {
          "internalType": "bool",
          "name": "position",
          "type": "bool"
        },
        {
          "internalType": "uint256",
          "name": "amount",
          "type": "uint256"
        }
      ],
      "name": "bet",
      "outputs": [],
      "stateMutability": "nonpayable",
      "type": "function"
    },
    {
      "inputs": [
        {
          "internalType": "uint256",
          "name": "",
          "type": "uint256"
        },
        {
          "internalType": "address",
          "name": "",
          "type": "address"
        }
      ],
      "name": "bets",
      "outputs": [
        {
          "internalType": "uint256",
          "name": "amount",
          "type": "uint256"
        },
        {
          "internalType": "bool",
          "name": "position",
          "type": "bool"
        },
        {
          "internalType": "bool",
          "name": "claimed",
          "type": "bool"
        }
      ],
      "stateMutability": "view",
      "type": "function"
    },
    {
      "inputs": [
        {
          "internalType": "uint256",
          "name": "marketId",
          "type": "uint256"
        }
      ],
      "name": "claim",
      "outputs": [],
      "stateMutability": "nonpayable",
      "type": "function"
    },
    {
      "inputs": [
        {
          "internalType": "string",
          "name": "tweetId",
          "type": "string"
        },
        {
          "internalType": "uint256",
          "name": "targetMetric",
          "type": "uint256"
        },
        {
          "internalType": "string",
          "name": "metricType",
          "type": "string"
        },
        {
          "internalType": "uint256",
          "name": "deadline",
          "type": "uint256"
        }
      ],
      "name": "createMarket",
      "outputs": [
        {
          "internalType": "uint256",
          "name": "",
          "type": "uint256"
        }
      ],
      "stateMutability": "nonpayable",
      "type": "function"
    },
    {
      "inputs": [],
      "name": "emergencyWithdraw",
      "outputs": [],
      "stateMutability": "nonpayable",
      "type": "function"
    },
    {
      "inputs": [],
      "name": "getActiveMarkets",
      "outputs": [
        {
          "internalType": "uint256[]",
          "name": "",
          "type": "uint256[]"
        }
      ],
      "stateMutability": "view",
      "type": "function"
    },
    {
      "inputs": [
        {
          "internalType": "uint256",
          "name": "marketId",
          "type": "uint256"
        },
        {
          "internalType": "address",
          "name": "user",
          "type": "address"
        }
      ],
      "name": "getBet",
      "outputs": [
        {
          "components": [
            {
              "internalType": "uint256",
              "name": "amount",
              "type": "uint256"
            },
            {
              "internalType": "bool",
              "name": "position",
              "type": "bool"
            },
            {
              "internalType": "bool",
              "name": "claimed",
              "type": "bool"
            }
          ],
          "internalType": "struct InkPredict.Bet",
          "name": "",
          "type": "tuple"
        }
      ],
      "stateMutability": "view",
      "type": "function"
    },
    {
      "inputs": [
        {
          "internalType": "uint256",
          "name": "marketId",
          "type": "uint256"
        }
      ],
      "name": "getMarket",
      "outputs": [
        {
          "components": [
            {
              "internalType": "uint256",
              "name": "id",
              "type": "uint256"
            },
            {
              "internalType": "string",
              "name": "tweetId",
              "type": "string"
            },
            {
              "internalType": "uint256",
              "name": "targetMetric",
              "type": "uint256"
            },
            {
              "internalType": "string",
              "name": "metricType",
              "type": "string"
            },
            {
              "internalType": "uint256",
              "name": "deadline",
              "type": "uint256"
            },
            {
              "internalType": "uint256",
              "name": "yesPool",
              "type": "uint256"
            },
            {
              "internalType": "uint256",
              "name": "noPool",
              "type": "uint256"
            },
            {
              "internalType": "bool",
              "name": "resolved",
              "type": "bool"
            },
            {
              "internalType": "bool",
              "name": "outcome",
              "type": "bool"
            },
            {
              "internalType": "uint256",
              "name": "createdAt",
              "type": "uint256"
            }
          ],
          "internalType": "struct InkPredict.Market",
          "name": "",
          "type": "tuple"
        }
      ],
      "stateMutability": "view",
      "type": "function"
    },
    {
      "inputs": [
        {
          "internalType": "uint256",
          "name": "marketId",
          "type": "uint256"
        }
      ],
      "name": "getOdds",
      "outputs": [
        {
          "internalType": "uint256",
          "name": "yesOdds",
          "type": "uint256"
        },
        {
          "internalType": "uint256",
          "name": "noOdds",
          "type": "uint256"
        }
      ],
      "stateMutability": "view",
      "type": "function"
    },
    {
      "inputs": [
        {
          "internalType": "uint256",
          "name": "marketId",
          "type": "uint256"
        },
        {
          "internalType": "bool",
          "name": "position",
          "type": "bool"
        },
        {
          "internalType": "uint256",
          "name": "betAmount",
          "type": "uint256"
        }
      ],
      "name": "getPotentialPayout",
      "outputs": [
        {
          "internalType": "uint256",
          "name": "",
          "type": "uint256"
        }
      ],
      "stateMutability": "view",
      "type": "function"
    },
    {
      "inputs": [],
      "name": "getUSDCToken",
      "outputs": [
        {
          "internalType": "address",
          "name": "",
          "type": "address"
        }
      ],
      "stateMutability": "view",
      "type": "function"
    },
    {
      "inputs": [],
      "name": "getUnresolvedExpiredMarkets",
      "outputs": [
        {
          "internalType": "uint256[]",
          "name": "",
          "type": "uint256[]"
        }
      ],
      "stateMutability": "view",
      "type": "function"
    },
    {
      "inputs": [
        {
          "internalType": "address",
          "name": "user",
          "type": "address"
        }
      ],
      "name": "getUserMarkets",
      "outputs": [
        {
          "internalType": "uint256[]",
          "name": "",
          "type": "uint256[]"
        }
      ],
      "stateMutability": "view",
      "type": "function"
    },
    {
      "inputs": [],
      "name": "marketCount",
      "outputs": [
        {
          "internalType": "uint256",
          "name": "",
          "type": "uint256"
        }
      ],
      "stateMutability": "view",
      "type": "function"
    },
    {
      "inputs": [
        {
          "internalType": "uint256",
          "name": "",
          "type": "uint256"
        }
      ],
      "name": "markets",
      "outputs": [
        {
          "internalType": "uint256",
          "name": "id",
          "type": "uint256"
        },
        {
          "internalType": "string",
          "name": "tweetId",
          "type": "string"
        },
        {
          "internalType": "uint256",
          "name": "targetMetric",
          "type": "uint256"
        },
        {
          "internalType": "string",
          "name": "metricType",
          "type": "string"
        },
        {
          "internalType": "uint256",
          "name": "deadline",
          "type": "uint256"
        },
        {
          "internalType": "uint256",
          "name": "yesPool",
          "type": "uint256"
        },
        {
          "internalType": "uint256",
          "name": "noPool",
          "type": "uint256"
        },
        {
          "internalType": "bool",
          "name": "resolved",
          "type": "bool"
        },
        {
          "internalType": "bool",
          "name": "outcome",
          "type": "bool"
        },
        {
          "internalType": "uint256",
          "name": "createdAt",
          "type": "uint256"
        }
      ],
      "stateMutability": "view",
      "type": "function"
    },
    {
      "inputs": [],
      "name": "oracle",
      "outputs": [
        {
          "internalType": "address",
          "name": "",
          "type": "address"
        }
      ],
      "stateMutability": "view",
      "type": "function"
    },
    {
      "inputs": [],
      "name": "paused",
      "outputs": [
        {
          "internalType": "bool",
          "name": "",
          "type": "bool"
        }
      ],
      "stateMutability": "view",
      "type": "function"
    },
    {
      "inputs": [
        {
          "internalType": "uint256",
          "name": "marketId",
          "type": "uint256"
        },
        {
          "internalType": "bool",
          "name": "outcome",
          "type": "bool"
        },
        {
          "internalType": "uint256",
          "name": "finalMetric",
          "type": "uint256"
        }
      ],
      "name": "resolve",
      "outputs": [],
      "stateMutability": "nonpayable",
      "type": "function"
    },
    {
      "inputs": [
        {
          "internalType": "address",
          "name": "newAdmin",
          "type": "address"
        }
      ],
      "name": "setAdmin",
      "outputs": [],
      "stateMutability": "nonpayable",
      "type": "function"
    },
    {
      "inputs": [
        {
          "internalType": "address",
          "name": "newOracle",
          "type": "address"
        }
      ],
      "name": "setOracle",
      "outputs": [],
      "stateMutability": "nonpayable",
      "type": "function"
    },
    {
      "inputs": [
        {
          "internalType": "bool",
          "name": "_paused",
          "type": "bool"
        }
      ],
      "name": "setPaused",
      "outputs": [],
      "stateMutability": "nonpayable",
      "type": "function"
    },
    {
      "inputs": [
        {
          "internalType": "address",
          "name": "newTreasury",
          "type": "address"
        }
      ],
      "name": "setTreasury",
      "outputs": [],
      "stateMutability": "nonpayable",
      "type": "function"
    },
    {
      "inputs": [],
      "name": "treasury",
      "outputs": [
        {
          "internalType": "address",
          "name": "",
          "type": "address"
        }
      ],
      "stateMutability": "view",
      "type": "function"
    },
    {
      "inputs": [],
      "name": "usdcToken",
      "outputs": [
        {
          "internalType": "contract IERC20",
          "name": "",
          "type": "address"
        }
      ],
      "stateMutability": "view",
      "type": "function"
    },
    {
      "inputs": [
        {
          "internalType": "address",
          "name": "",
          "type": "address"
        },
        {
          "internalType": "uint256",
          "name": "",
          "type": "uint256"
        }
      ],
      "name": "userMarkets",
      "outputs": [
        {
          "internalType": "uint256",
          "name": "",
          "type": "uint256"
        }
      ],
      "stateMutability": "view",
      "type": "function"
    }
  ],
  "bytecode": "0x60a06040523480156200001157600080fd5b5060405162002537380380620025378339810160408190526200003491620000e1565b6001600160a01b0381166200008f5760405162461bcd60e51b815260206004820152601460248201527f496e76616c696420555344432061646472657373000000000000000000000000604482015260640160405180910390fd5b60048054336001600160a01b031991821681179092556005805490911682179055600680546001600160a01b03939093166080526001600160a81b031990921660ff60a01b1990911617905562000113565b600060208284031215620000f457600080fd5b81516001600160a01b03811681146200010c57600080fd5b9392505050565b6080516123de62000159600039600081816101d901528181610439015281816108b40152818161098d01528181610f0801528181611888015261192a01526123de6000f3fe608060405234801561001057600080fd5b50600436106101cf5760003560e01c80638decaec011610104578063db2e21bc116100a2578063f0f4426011610071578063f0f4426014610424578063f175240914610437578063f644b3bb1461045d578063f851a440146104b557600080fd5b8063db2e21bc146103ba578063e0950ddf146103c2578063eb44fdd3146103fb578063ec9790821461041b57600080fd5b8063a8fc138c116100de578063a8fc138c14610358578063b1283e771461036b578063da4473d814610394578063db0f871d146103a757600080fd5b80638decaec01461032a57806398406b231461033d578063a5e973c31461035057600080fd5b806361d027b311610171578063704b6c021161014b578063704b6c02146102e75780637adbf973146102fa5780637dc0d1d01461030d5780637e50898e1461032057600080fd5b806361d027b3146102b557806363a20caf146102c85780636540742f146102dd57600080fd5b8063191cfd82116101ad578063191cfd821461025557806334fbc9a114610276578063379607f51461027e5780635c975abb1461029157600080fd5b806311eac855146101d4578063126c41661461021857806316c38b3c14610240575b600080fd5b6101fb7f000000000000000000000000000000000000000000000000000000000000000081565b6040516001600160a01b0390911681526020015b60405180910390f35b61022b610226366004611d03565b6104c8565b6040805192835260208301919091520161020f565b61025361024e366004611d2a565b61053b565b005b610268610263366004611d4e565b6105c6565b60405190815260200161020f565b61026860c881565b61025361028c366004611d03565b6106b8565b6006546102a590600160a01b900460ff1681565b604051901515815260200161020f565b6006546101fb906001600160a01b031681565b6102d0610a7f565b60405161020f9190611d86565b610268620f424081565b6102536102f5366004611de6565b610bbb565b610253610308366004611de6565b610c5d565b6005546101fb906001600160a01b031681565b61026862093a8081565b610253610338366004611d4e565b610cff565b61026861034b366004611ea4565b611089565b6102d0611362565b610253610366366004611d4e565b611493565b61037e610379366004611d03565b6115fe565b60405161020f9a99989796959493929190611f5f565b6102d06103a2366004611de6565b611763565b6102686103b5366004611fcc565b6117cf565b610253611800565b6103d56103d0366004611ff6565b6119da565b60408051825181526020808401511515908201529181015115159082015260600161020f565b61040e610409366004611d03565b611a48565b60405161020f9190612022565b61026860035481565b610253610432366004611de6565b611c61565b7f00000000000000000000000000000000000000000000000000000000000000006101fb565b61049861046b366004611ff6565b60016020818152600093845260408085209091529183529120805491015460ff8082169161010090041683565b60408051938452911515602084015215159082015260600161020f565b6004546101fb906001600160a01b031681565b60008181526020819052604081206006810154600582015483929183916104ef91906120e4565b90508060000361050757506113889485945092505050565b80826005015461271061051a91906120f7565b610524919061210e565b935061053284612710612130565b92505050915091565b6004546001600160a01b0316331461056e5760405162461bcd60e51b815260040161056590612143565b60405180910390fd5b60068054821515600160a01b0260ff60a01b199091161790556040517f0e2fb031ee032dc02d8011dc50b816eb450cf856abd8261680dac74f72165bd2906105bb90831515815260200190565b60405180910390a150565b6000838152602081905260408120600781015460ff161561061b5760405162461bcd60e51b815260206004820152600f60248201526e13585c9ad95d081c995cdbdb1d9959608a1b6044820152606401610565565b6000838260060154836005015461063291906120e4565b61063c91906120e4565b905060008561065a5784836006015461065591906120e4565b61066a565b84836005015461066a91906120e4565b905060008161067984886120f7565b610683919061210e565b9050600061271061069560c8846120f7565b61069f919061210e565b90506106ab8183612130565b9998505050505050505050565b60008181526020818152604080832060018352818420338552909252909120600782015460ff1661071a5760405162461bcd60e51b815260206004820152600c60248201526b139bdd081c995cdbdb1d995960a21b6044820152606401610565565b6001810154610100900460ff16156107665760405162461bcd60e51b815260206004820152600f60248201526e105b1c9958591e4818db185a5b5959608a1b6044820152606401610565565b80546107a45760405162461bcd60e51b815260206004820152600d60248201526c139bc818995d081c1b1858d959609a1b6044820152606401610565565b6007820154600182015460ff9081161515610100909204161515146107f65760405162461bcd60e51b8152602060048201526008602482015267131bdcdd0818995d60c21b6044820152606401610565565b60008260060154836005015461080c91906120e4565b6007840154909150600090610100900460ff1661082d578360060154610833565b83600501545b905060008183856000015461084891906120f7565b610852919061210e565b9050600061271061086460c8846120f7565b61086e919061210e565b9050600061087c8284612130565b60018701805461ff00191661010017905560405163a9059cbb60e01b8152336004820152602481018290529091506001600160a01b037f0000000000000000000000000000000000000000000000000000000000000000169063a9059cbb906044016020604051808303816000875af11580156108fd573d6000803e3d6000fd5b505050506040513d601f19601f820116820180604052508101906109219190612166565b6109645760405162461bcd60e51b81526020600482015260146024820152731554d110c81d1c985b9cd9995c8819985a5b195960621b6044820152606401610565565b60065460405163a9059cbb60e01b81526001600160a01b039182166004820152602481018490527f00000000000000000000000000000000000000000000000000000000000000009091169063a9059cbb906044016020604051808303816000875af11580156109d8573d6000803e3d6000fd5b505050506040513d601f19601f820116820180604052508101906109fc9190612166565b610a3e5760405162461bcd60e51b8152602060048201526013602482015272119959481d1c985b9cd9995c8819985a5b1959606a1b6044820152606401610565565b604051818152339089907f5380cf6fe903b40c6d5a9e0dfbca2f3a423f0a21520b4d5947ed5169bdba946d9060200160405180910390a35050505050505050565b60606000805b600354811015610ae75760008181526020819052604090206007015460ff16158015610ac257506000818152602081905260409020600401544210155b15610ad55781610ad181612183565b9250505b80610adf81612183565b915050610a85565b5060008167ffffffffffffffff811115610b0357610b03611e01565b604051908082528060200260200182016040528015610b2c578160200160208202803683370190505b5090506000805b600354811015610bb25760008181526020819052604090206007015460ff16158015610b7057506000818152602081905260409020600401544210155b15610ba057808383610b8181612183565b945081518110610b9357610b9361219c565b6020026020010181815250505b80610baa81612183565b915050610b33565b50909392505050565b6004546001600160a01b03163314610be55760405162461bcd60e51b815260040161056590612143565b6001600160a01b038116610c0b5760405162461bcd60e51b8152600401610565906121b2565b600480546001600160a01b038381166001600160a01b0319831681179093556040519116919082907f101b8081ff3b56bbf45deb824d86a3b0fd38b7e3dd42421105cf8abe9106db0b90600090a35050565b6004546001600160a01b03163314610c875760405162461bcd60e51b815260040161056590612143565b6001600160a01b038116610cad5760405162461bcd60e51b8152600401610565906121b2565b600580546001600160a01b038381166001600160a01b0319831681179093556040519116919082907f078c3b417dadf69374a59793b829c52001247130433427049317bde56607b1b790600090a35050565b600654600160a01b900460ff1615610d4b5760405162461bcd60e51b815260206004820152600f60248201526e10dbdb9d1c9858dd081c185d5cd959608a1b6044820152606401610565565b60008381526020819052604090206003548410610d7a5760405162461bcd60e51b8152600401610565906121db565b600781015460ff1615610dc15760405162461bcd60e51b815260206004820152600f60248201526e13585c9ad95d081c995cdbdb1d9959608a1b6044820152606401610565565b80600401544210610e045760405162461bcd60e51b815260206004820152600d60248201526c13585c9ad95d0818db1bdcd959609a1b6044820152606401610565565b620f4240821015610e475760405162461bcd60e51b815260206004820152600d60248201526c10995d081d1bdbc81cdb585b1b609a1b6044820152606401610565565b600084815260016020908152604080832033845290915281208054909103610e8c57336000908152600260209081526040822080546001810182559083529120018590555b805415610ee657600181015460ff16151584151514610ee65760405162461bcd60e51b815260206004820152601660248201527521b0b73737ba1031b430b733b2903837b9b4ba34b7b760511b6044820152606401610565565b6040516323b872dd60e01b8152336004820152306024820152604481018490527f00000000000000000000000000000000000000000000000000000000000000006001600160a01b0316906323b872dd906064016020604051808303816000875af1158015610f59573d6000803e3d6000fd5b505050506040513d601f19601f82011682018060405250810190610f7d9190612166565b610fc05760405162461bcd60e51b81526020600482015260146024820152731554d110c81d1c985b9cd9995c8819985a5b195960621b6044820152606401610565565b82816000016000828254610fd491906120e4565b909155505060018101805460ff19168515801591909117909155611011578282600501600082825461100691906120e4565b9091555061102b9050565b8282600601600082825461102591906120e4565b90915550505b6005820154600683015460408051871515815260208101879052908101929092526060820152339086907f1faf624c13819091a75aa5abee6c43a2226da9b9475e62bdfc87bef2889b50969060800160405180910390a35050505050565b6004546000906001600160a01b031633146110b65760405162461bcd60e51b815260040161056590612143565b600654600160a01b900460ff16156111025760405162461bcd60e51b815260206004820152600f60248201526e10dbdb9d1c9858dd081c185d5cd959608a1b6044820152606401610565565b4282116111445760405162461bcd60e51b815260206004820152601060248201526f496e76616c696420646561646c696e6560801b6044820152606401610565565b61115162093a80426120e4565b8211156111935760405162461bcd60e51b815260206004820152601060248201526f2232b0b23634b732903a37b7903330b960811b6044820152606401610565565b600084116111d45760405162461bcd60e51b815260206004820152600e60248201526d125b9d985b1a59081d185c99d95d60921b6044820152606401610565565b60008551116112185760405162461bcd60e51b815260206004820152601060248201526f125b9d985b1a59081d1dd9595d08125160821b6044820152606401610565565b600380546000918261122983612183565b90915550604080516101408101825282815260208082018a81528284018a90526060830189905260808301889052600060a0840181905260c0840181905260e08401819052610100840181905242610120850152858152918290529290208151815591519293509160018201906112a09082612292565b5060408201516002820155606082015160038201906112bf9082612292565b506080820151600482015560a0820151600582015560c0820151600682015560e08201516007820180546101008086015115150261ff00199315159390931661ffff19909116179190911790556101209091015160089091015560405181907f0949a1ff365b0bf3610436d66867ad6adce3739635c4ae379023d1555857c9a290611351908990899089908990612352565b60405180910390a295945050505050565b60606000805b6003548110156113c95760008181526020819052604090206007015460ff161580156113a4575060008181526020819052604090206004015442105b156113b757816113b381612183565b9250505b806113c181612183565b915050611368565b5060008167ffffffffffffffff8111156113e5576113e5611e01565b60405190808252806020026020018201604052801561140e578160200160208202803683370190505b5090506000805b600354811015610bb25760008181526020819052604090206007015460ff16158015611451575060008181526020819052604090206004015442105b156114815780838361146281612183565b9450815181106114745761147461219c565b6020026020010181815250505b8061148b81612183565b915050611415565b6005546001600160a01b031633146114da5760405162461bcd60e51b815260206004820152600a6024820152694e6f74206f7261636c6560b01b6044820152606401610565565b600083815260208190526040902060035484106115095760405162461bcd60e51b8152600401610565906121db565b600781015460ff16156115515760405162461bcd60e51b815260206004820152601060248201526f105b1c9958591e481c995cdbdb1d995960821b6044820152606401610565565b80600401544210156115975760405162461bcd60e51b815260206004820152600f60248201526e139bdd081e595d08195e1c1a5c9959608a1b6044820152606401610565565b6007810180548415156101000261ffff1990911617600117905560405184907f6d4d544f5a6dcf38d77a232d3ef7358625c74877a1ad954fcb507872e7a05eaf906115f090869086909115158252602082015260400190565b60405180910390a250505050565b6000602081905290815260409020805460018201805491929161162090612209565b80601f016020809104026020016040519081016040528092919081815260200182805461164c90612209565b80156116995780601f1061166e57610100808354040283529160200191611699565b820191906000526020600020905b81548152906001019060200180831161167c57829003601f168201915b5050505050908060020154908060030180546116b490612209565b80601f01602080910402602001604051908101604052809291908181526020018280546116e090612209565b801561172d5780601f106117025761010080835404028352916020019161172d565b820191906000526020600020905b81548152906001019060200180831161171057829003601f168201915b505050600484015460058501546006860154600787015460089097015495969295919450925060ff80831692610100900416908a565b6001600160a01b0381166000908152600260209081526040918290208054835181840281018401909452808452606093928301828280156117c357602002820191906000526020600020905b8154815260200190600101908083116117af575b50505050509050919050565b600260205281600052604060002081815481106117eb57600080fd5b90600052602060002001600091509150505481565b6004546001600160a01b0316331461182a5760405162461bcd60e51b815260040161056590612143565b600654600160a01b900460ff166118705760405162461bcd60e51b815260206004820152600a602482015269139bdd081c185d5cd95960b21b6044820152606401610565565b6040516370a0823160e01b81523060048201526000907f00000000000000000000000000000000000000000000000000000000000000006001600160a01b0316906370a0823190602401602060405180830381865afa1580156118d7573d6000803e3d6000fd5b505050506040513d601f19601f820116820180604052508101906118fb919061238f565b6004805460405163a9059cbb60e01b81526001600160a01b0391821692810192909252602482018390529192507f00000000000000000000000000000000000000000000000000000000000000009091169063a9059cbb906044016020604051808303816000875af1158015611975573d6000803e3d6000fd5b505050506040513d601f19601f820116820180604052508101906119999190612166565b6119d75760405162461bcd60e51b815260206004820152600f60248201526e15da5d1a191c985dc819985a5b1959608a1b6044820152606401610565565b50565b60408051606080820183526000808352602080840182905292840181905285815260018084528482206001600160a01b03871683528452908490208451928301855280548352015460ff80821615159383019390935261010090049091161515918101919091525b92915050565b611aa260405180610140016040528060008152602001606081526020016000815260200160608152602001600081526020016000815260200160008152602001600015158152602001600015158152602001600081525090565b6003548210611ac35760405162461bcd60e51b8152600401610565906121db565b6000828152602081815260409182902082516101408101909352805483526001810180549192840191611af590612209565b80601f0160208091040260200160405190810160405280929190818152602001828054611b2190612209565b8015611b6e5780601f10611b4357610100808354040283529160200191611b6e565b820191906000526020600020905b815481529060010190602001808311611b5157829003601f168201915b5050505050815260200160028201548152602001600382018054611b9190612209565b80601f0160208091040260200160405190810160405280929190818152602001828054611bbd90612209565b8015611c0a5780601f10611bdf57610100808354040283529160200191611c0a565b820191906000526020600020905b815481529060010190602001808311611bed57829003601f168201915b5050509183525050600482015460208201526005820154604082015260068201546060820152600782015460ff8082161515608084015261010090910416151560a082015260089091015460c09091015292915050565b6004546001600160a01b03163314611c8b5760405162461bcd60e51b815260040161056590612143565b6001600160a01b038116611cb15760405162461bcd60e51b8152600401610565906121b2565b600680546001600160a01b038381166001600160a01b0319831681179093556040519116919082907f4ab5be82436d353e61ca18726e984e561f5c1cc7c6d38b29d2553c790434705a90600090a35050565b600060208284031215611d1557600080fd5b5035919050565b80151581146119d757600080fd5b600060208284031215611d3c57600080fd5b8135611d4781611d1c565b9392505050565b600080600060608486031215611d6357600080fd5b833592506020840135611d7581611d1c565b929592945050506040919091013590565b6020808252825182820181905260009190848201906040850190845b81811015611dbe57835183529284019291840191600101611da2565b50909695505050505050565b80356001600160a01b0381168114611de157600080fd5b919050565b600060208284031215611df857600080fd5b611d4782611dca565b634e487b7160e01b600052604160045260246000fd5b600082601f830112611e2857600080fd5b813567ffffffffffffffff80821115611e4357611e43611e01565b604051601f8301601f19908116603f01168101908282118183101715611e6b57611e6b611e01565b81604052838152866020858801011115611e8457600080fd5b836020870160208301376000602085830101528094505050505092915050565b60008060008060808587031215611eba57600080fd5b843567ffffffffffffffff80821115611ed257600080fd5b611ede88838901611e17565b9550602087013594506040870135915080821115611efb57600080fd5b50611f0887828801611e17565b949793965093946060013593505050565b6000815180845260005b81811015611f3f57602081850181015186830182015201611f23565b506000602082860101526020601f19601f83011685010191505092915050565b60006101408c8352806020840152611f798184018d611f19565b90508a60408401528281036060840152611f93818b611f19565b6080840199909952505060a081019590955260c085019390935290151560e0840152151561010083015261012090910152949350505050565b60008060408385031215611fdf57600080fd5b611fe883611dca565b946020939093013593505050565b6000806040838503121561200957600080fd5b8235915061201960208401611dca565b90509250929050565b60208152815160208201526000602083015161014080604085015261204b610160850183611f19565b9150604085015160608501526060850151601f198584030160808601526120728382611f19565b925050608085015160a085015260a085015160c085015260c085015160e085015260e08501516101006120a88187018315159052565b86015190506101206120bd8682018315159052565b959095015193019290925250919050565b634e487b7160e01b600052601160045260246000fd5b80820180821115611a4257611a426120ce565b8082028115828204841417611a4257611a426120ce565b60008261212b57634e487b7160e01b600052601260045260246000fd5b500490565b81810381811115611a4257611a426120ce565b6020808252600990820152682737ba1030b236b4b760b91b604082015260600190565b60006020828403121561217857600080fd5b8151611d4781611d1c565b600060018201612195576121956120ce565b5060010190565b634e487b7160e01b600052603260045260246000fd5b6020808252600f908201526e496e76616c6964206164647265737360881b604082015260600190565b60208082526014908201527313585c9ad95d08191bd95cdb89dd08195e1a5cdd60621b604082015260600190565b600181811c9082168061221d57607f821691505b60208210810361223d57634e487b7160e01b600052602260045260246000fd5b50919050565b601f82111561228d57600081815260208120601f850160051c8101602086101561226a5750805b601f850160051c820191505b8181101561228957828155600101612276565b5050505b505050565b815167ffffffffffffffff8111156122ac576122ac611e01565b6122c0816122ba8454612209565b84612243565b602080601f8311600181146122f557600084156122dd5750858301515b600019600386901b1c1916600185901b178555612289565b600085815260208120601f198616915b8281101561232457888601518255948401946001909101908401612305565b50858210156123425787850151600019600388901b60f8161c191681555b5050505050600190811b01905550565b6080815260006123656080830187611f19565b856020840152828103604084015261237d8186611f19565b91505082606083015295945050505050565b6000602082840312156123a157600080fd5b505191905056fea2646970667358221220d5ef656613d8c440b84c5d21e646303d1c79afb9eb07f22d92ea91b1e729782d64736f6c63430008140033",
  "linkReferences": {},
  "deployedLinkReferences": {}
}